{
  "_format": "hh-sol-artifact-1",
  "contractName": "FundingManager",
  "sourceName": "src/FundingManager.sol",
  "abi": [
    {
      "inputs": [
        {
          "internalType": "address",
          "name": "_oracle",
          "type": "address"
        },
        {
          "internalType": "address",
          "name": "_admin",
          "type": "address"
        }
      ],
      "stateMutability": "nonpayable",
      "type": "constructor"
    },
    {
      "inputs": [],
      "name": "AMMNotRegistered",
      "type": "error"
    },
    {
      "inputs": [],
      "name": "AccessControlBadConfirmation",
      "type": "error"
    },
    {
      "inputs": [
        {
          "internalType": "address",
          "name": "account",
          "type": "address"
        },
        {
          "internalType": "bytes32",
          "name": "neededRole",
          "type": "bytes32"
        }
      ],
      "name": "AccessControlUnauthorizedAccount",
      "type": "error"
    },
    {
      "inputs": [],
      "name": "DebtTooOld",
      "type": "error"
    },
    {
      "inputs": [],
      "name": "EmergencyProtocolActive",
      "type": "error"
    },
    {
      "inputs": [],
      "name": "EnforcedPause",
      "type": "error"
    },
    {
      "inputs": [],
      "name": "ExpectedPause",
      "type": "error"
    },
    {
      "inputs": [],
      "name": "FundingCapExceeded",
      "type": "error"
    },
    {
      "inputs": [],
      "name": "FundingPaused",
      "type": "error"
    },
    {
      "inputs": [],
      "name": "InsufficientLPFunds",
      "type": "error"
    },
    {
      "inputs": [],
      "name": "InvalidCapConfiguration",
      "type": "error"
    },
    {
      "inputs": [],
      "name": "InvalidFundingAmount",
      "type": "error"
    },
    {
      "inputs": [],
      "name": "ReentrancyGuardReentrantCall",
      "type": "error"
    },
    {
      "inputs": [],
      "name": "UnauthorizedFundingCaller",
      "type": "error"
    },
    {
      "anonymous": false,
      "inputs": [
        {
          "indexed": true,
          "internalType": "address",
          "name": "ammAddress",
          "type": "address"
        },
        {
          "indexed": false,
          "internalType": "string",
          "name": "protocol",
          "type": "string"
        },
        {
          "indexed": false,
          "internalType": "uint256",
          "name": "severity",
          "type": "uint256"
        }
      ],
      "name": "EmergencyProtocolTriggered",
      "type": "event"
    },
    {
      "anonymous": false,
      "inputs": [
        {
          "indexed": true,
          "internalType": "address",
          "name": "ammAddress",
          "type": "address"
        },
        {
          "indexed": false,
          "internalType": "string",
          "name": "capType",
          "type": "string"
        },
        {
          "indexed": false,
          "internalType": "uint256",
          "name": "requestedAmount",
          "type": "uint256"
        },
        {
          "indexed": false,
          "internalType": "uint256",
          "name": "actualAmount",
          "type": "uint256"
        }
      ],
      "name": "FundingCapReached",
      "type": "event"
    },
    {
      "anonymous": false,
      "inputs": [
        {
          "indexed": true,
          "internalType": "address",
          "name": "ammAddress",
          "type": "address"
        },
        {
          "indexed": false,
          "internalType": "uint256",
          "name": "totalPayments",
          "type": "uint256"
        },
        {
          "indexed": false,
          "internalType": "int256",
          "name": "lpFunding",
          "type": "int256"
        },
        {
          "indexed": false,
          "internalType": "uint256",
          "name": "positionCount",
          "type": "uint256"
        },
        {
          "indexed": false,
          "internalType": "bool",
          "name": "capReached",
          "type": "bool"
        }
      ],
      "name": "FundingExecuted",
      "type": "event"
    },
    {
      "anonymous": false,
      "inputs": [
        {
          "indexed": true,
          "internalType": "address",
          "name": "ammAddress",
          "type": "address"
        },
        {
          "indexed": false,
          "internalType": "int256",
          "name": "rate",
          "type": "int256"
        },
        {
          "indexed": false,
          "internalType": "uint256",
          "name": "oraclePrice",
          "type": "uint256"
        },
        {
          "indexed": false,
          "internalType": "uint256",
          "name": "markPrice",
          "type": "uint256"
        },
        {
          "indexed": false,
          "internalType": "int256",
          "name": "premium",
          "type": "int256"
        }
      ],
      "name": "FundingRateUpdated",
      "type": "event"
    },
    {
      "anonymous": false,
      "inputs": [
        {
          "indexed": false,
          "internalType": "address",
          "name": "account",
          "type": "address"
        }
      ],
      "name": "Paused",
      "type": "event"
    },
    {
      "anonymous": false,
      "inputs": [
        {
          "indexed": true,
          "internalType": "uint256",
          "name": "positionId",
          "type": "uint256"
        },
        {
          "indexed": true,
          "internalType": "address",
          "name": "trader",
          "type": "address"
        },
        {
          "indexed": false,
          "internalType": "int256",
          "name": "fundingAmount",
          "type": "int256"
        },
        {
          "indexed": false,
          "internalType": "uint256",
          "name": "newMargin",
          "type": "uint256"
        }
      ],
      "name": "PositionFundingApplied",
      "type": "event"
    },
    {
      "anonymous": false,
      "inputs": [
        {
          "indexed": true,
          "internalType": "bytes32",
          "name": "role",
          "type": "bytes32"
        },
        {
          "indexed": true,
          "internalType": "bytes32",
          "name": "previousAdminRole",
          "type": "bytes32"
        },
        {
          "indexed": true,
          "internalType": "bytes32",
          "name": "newAdminRole",
          "type": "bytes32"
        }
      ],
      "name": "RoleAdminChanged",
      "type": "event"
    },
    {
      "anonymous": false,
      "inputs": [
        {
          "indexed": true,
          "internalType": "bytes32",
          "name": "role",
          "type": "bytes32"
        },
        {
          "indexed": true,
          "internalType": "address",
          "name": "account",
          "type": "address"
        },
        {
          "indexed": true,
          "internalType": "address",
          "name": "sender",
          "type": "address"
        }
      ],
      "name": "RoleGranted",
      "type": "event"
    },
    {
      "anonymous": false,
      "inputs": [
        {
          "indexed": true,
          "internalType": "bytes32",
          "name": "role",
          "type": "bytes32"
        },
        {
          "indexed": true,
          "internalType": "address",
          "name": "account",
          "type": "address"
        },
        {
          "indexed": true,
          "internalType": "address",
          "name": "sender",
          "type": "address"
        }
      ],
      "name": "RoleRevoked",
      "type": "event"
    },
    {
      "anonymous": false,
      "inputs": [
        {
          "indexed": false,
          "internalType": "address",
          "name": "account",
          "type": "address"
        }
      ],
      "name": "Unpaused",
      "type": "event"
    },
    {
      "inputs": [],
      "name": "ADMIN_ROLE",
      "outputs": [
        {
          "internalType": "bytes32",
          "name": "",
          "type": "bytes32"
        }
      ],
      "stateMutability": "view",
      "type": "function"
    },
    {
      "inputs": [],
      "name": "CUMULATIVE_WINDOW",
      "outputs": [
        {
          "internalType": "uint256",
          "name": "",
          "type": "uint256"
        }
      ],
      "stateMutability": "view",
      "type": "function"
    },
    {
      "inputs": [],
      "name": "DEBT_CLEANUP_WINDOW",
      "outputs": [
        {
          "internalType": "uint256",
          "name": "",
          "type": "uint256"
        }
      ],
      "stateMutability": "view",
      "type": "function"
    },
    {
      "inputs": [],
      "name": "DEFAULT_ADMIN_ROLE",
      "outputs": [
        {
          "internalType": "bytes32",
          "name": "",
          "type": "bytes32"
        }
      ],
      "stateMutability": "view",
      "type": "function"
    },
    {
      "inputs": [],
      "name": "DEFAULT_CUMULATIVE_CAP",
      "outputs": [
        {
          "internalType": "uint256",
          "name": "",
          "type": "uint256"
        }
      ],
      "stateMutability": "view",
      "type": "function"
    },
    {
      "inputs": [],
      "name": "DEFAULT_DAILY_CAP",
      "outputs": [
        {
          "internalType": "uint256",
          "name": "",
          "type": "uint256"
        }
      ],
      "stateMutability": "view",
      "type": "function"
    },
    {
      "inputs": [],
      "name": "DEFAULT_EMERGENCY_THRESHOLD",
      "outputs": [
        {
          "internalType": "uint256",
          "name": "",
          "type": "uint256"
        }
      ],
      "stateMutability": "view",
      "type": "function"
    },
    {
      "inputs": [],
      "name": "DEFAULT_MAX_DEBT_AGE",
      "outputs": [
        {
          "internalType": "uint256",
          "name": "",
          "type": "uint256"
        }
      ],
      "stateMutability": "view",
      "type": "function"
    },
    {
      "inputs": [],
      "name": "EMERGENCY_ROLE",
      "outputs": [
        {
          "internalType": "bytes32",
          "name": "",
          "type": "bytes32"
        }
      ],
      "stateMutability": "view",
      "type": "function"
    },
    {
      "inputs": [],
      "name": "FUNDING_EXECUTOR_ROLE",
      "outputs": [
        {
          "internalType": "bytes32",
          "name": "",
          "type": "bytes32"
        }
      ],
      "stateMutability": "view",
      "type": "function"
    },
    {
      "inputs": [],
      "name": "FUNDING_PERIOD",
      "outputs": [
        {
          "internalType": "uint256",
          "name": "",
          "type": "uint256"
        }
      ],
      "stateMutability": "view",
      "type": "function"
    },
    {
      "inputs": [],
      "name": "FUNDING_TIME_ET",
      "outputs": [
        {
          "internalType": "uint256",
          "name": "",
          "type": "uint256"
        }
      ],
      "stateMutability": "view",
      "type": "function"
    },
    {
      "inputs": [],
      "name": "GRACE_PERIOD",
      "outputs": [
        {
          "internalType": "uint256",
          "name": "",
          "type": "uint256"
        }
      ],
      "stateMutability": "view",
      "type": "function"
    },
    {
      "inputs": [],
      "name": "PRECISION",
      "outputs": [
        {
          "internalType": "uint256",
          "name": "",
          "type": "uint256"
        }
      ],
      "stateMutability": "view",
      "type": "function"
    },
    {
      "inputs": [
        {
          "internalType": "address",
          "name": "",
          "type": "address"
        },
        {
          "internalType": "string",
          "name": "",
          "type": "string"
        }
      ],
      "name": "activeEmergencyProtocols",
      "outputs": [
        {
          "internalType": "bool",
          "name": "",
          "type": "bool"
        }
      ],
      "stateMutability": "view",
      "type": "function"
    },
    {
      "inputs": [
        {
          "internalType": "uint256",
          "name": "positionId",
          "type": "uint256"
        },
        {
          "internalType": "address",
          "name": "ammAddress",
          "type": "address"
        }
      ],
      "name": "calculatePositionFunding",
      "outputs": [
        {
          "internalType": "int256",
          "name": "",
          "type": "int256"
        }
      ],
      "stateMutability": "view",
      "type": "function"
    },
    {
      "inputs": [
        {
          "internalType": "address",
          "name": "ammAddress",
          "type": "address"
        },
        {
          "internalType": "uint256",
          "name": "amount",
          "type": "uint256"
        }
      ],
      "name": "checkFundingCap",
      "outputs": [
        {
          "internalType": "bool",
          "name": "capReached",
          "type": "bool"
        },
        {
          "internalType": "uint256",
          "name": "availableAmount",
          "type": "uint256"
        }
      ],
      "stateMutability": "view",
      "type": "function"
    },
    {
      "inputs": [
        {
          "internalType": "address",
          "name": "",
          "type": "address"
        }
      ],
      "name": "currentFundingRates",
      "outputs": [
        {
          "internalType": "int256",
          "name": "rate",
          "type": "int256"
        },
        {
          "internalType": "uint256",
          "name": "timestamp",
          "type": "uint256"
        },
        {
          "internalType": "uint256",
          "name": "oraclePrice",
          "type": "uint256"
        },
        {
          "internalType": "uint256",
          "name": "markPrice",
          "type": "uint256"
        },
        {
          "internalType": "int256",
          "name": "premium",
          "type": "int256"
        }
      ],
      "stateMutability": "view",
      "type": "function"
    },
    {
      "inputs": [
        {
          "internalType": "address",
          "name": "",
          "type": "address"
        }
      ],
      "name": "dailyCapResetTime",
      "outputs": [
        {
          "internalType": "uint256",
          "name": "",
          "type": "uint256"
        }
      ],
      "stateMutability": "view",
      "type": "function"
    },
    {
      "inputs": [
        {
          "internalType": "address",
          "name": "",
          "type": "address"
        },
        {
          "internalType": "uint256",
          "name": "",
          "type": "uint256"
        }
      ],
      "name": "dailyFundingHistory",
      "outputs": [
        {
          "internalType": "uint256",
          "name": "",
          "type": "uint256"
        }
      ],
      "stateMutability": "view",
      "type": "function"
    },
    {
      "inputs": [
        {
          "internalType": "address",
          "name": "",
          "type": "address"
        }
      ],
      "name": "dailyFundingUsed",
      "outputs": [
        {
          "internalType": "uint256",
          "name": "",
          "type": "uint256"
        }
      ],
      "stateMutability": "view",
      "type": "function"
    },
    {
      "inputs": [
        {
          "internalType": "address",
          "name": "",
          "type": "address"
        }
      ],
      "name": "emergencySeverity",
      "outputs": [
        {
          "internalType": "uint256",
          "name": "",
          "type": "uint256"
        }
      ],
      "stateMutability": "view",
      "type": "function"
    },
    {
      "inputs": [
        {
          "internalType": "address",
          "name": "ammAddress",
          "type": "address"
        }
      ],
      "name": "executeFunding",
      "outputs": [
        {
          "components": [
            {
              "internalType": "uint256",
              "name": "totalPayments",
              "type": "uint256"
            },
            {
              "internalType": "int256",
              "name": "lpFunding",
              "type": "int256"
            },
            {
              "internalType": "uint256",
              "name": "positionCount",
              "type": "uint256"
            },
            {
              "internalType": "bool",
              "name": "capReached",
              "type": "bool"
            },
            {
              "internalType": "uint256",
              "name": "executionTime",
              "type": "uint256"
            }
          ],
          "internalType": "struct IFundingManager.FundingExecution",
          "name": "execution",
          "type": "tuple"
        }
      ],
      "stateMutability": "nonpayable",
      "type": "function"
    },
    {
      "inputs": [
        {
          "internalType": "address",
          "name": "",
          "type": "address"
        }
      ],
      "name": "fundingCaps",
      "outputs": [
        {
          "internalType": "uint256",
          "name": "dailyCapPercent",
          "type": "uint256"
        },
        {
          "internalType": "uint256",
          "name": "cumulativeCapPercent",
          "type": "uint256"
        },
        {
          "internalType": "uint256",
          "name": "emergencyThreshold",
          "type": "uint256"
        },
        {
          "internalType": "uint256",
          "name": "maxDebtAge",
          "type": "uint256"
        }
      ],
      "stateMutability": "view",
      "type": "function"
    },
    {
      "inputs": [
        {
          "internalType": "address",
          "name": "",
          "type": "address"
        }
      ],
      "name": "fundingPaused",
      "outputs": [
        {
          "internalType": "bool",
          "name": "",
          "type": "bool"
        }
      ],
      "stateMutability": "view",
      "type": "function"
    },
    {
      "inputs": [
        {
          "internalType": "address",
          "name": "ammAddress",
          "type": "address"
        }
      ],
      "name": "getCumulativeFundingUsage",
      "outputs": [
        {
          "internalType": "uint256",
          "name": "",
          "type": "uint256"
        },
        {
          "internalType": "uint256",
          "name": "",
          "type": "uint256"
        }
      ],
      "stateMutability": "view",
      "type": "function"
    },
    {
      "inputs": [
        {
          "internalType": "address",
          "name": "ammAddress",
          "type": "address"
        }
      ],
      "name": "getCurrentFundingRate",
      "outputs": [
        {
          "components": [
            {
              "internalType": "int256",
              "name": "rate",
              "type": "int256"
            },
            {
              "internalType": "uint256",
              "name": "timestamp",
              "type": "uint256"
            },
            {
              "internalType": "uint256",
              "name": "oraclePrice",
              "type": "uint256"
            },
            {
              "internalType": "uint256",
              "name": "markPrice",
              "type": "uint256"
            },
            {
              "internalType": "int256",
              "name": "premium",
              "type": "int256"
            }
          ],
          "internalType": "struct IFundingManager.FundingRate",
          "name": "",
          "type": "tuple"
        }
      ],
      "stateMutability": "view",
      "type": "function"
    },
    {
      "inputs": [
        {
          "internalType": "address",
          "name": "ammAddress",
          "type": "address"
        }
      ],
      "name": "getDailyFundingUsage",
      "outputs": [
        {
          "internalType": "uint256",
          "name": "",
          "type": "uint256"
        },
        {
          "internalType": "uint256",
          "name": "",
          "type": "uint256"
        },
        {
          "internalType": "uint256",
          "name": "",
          "type": "uint256"
        }
      ],
      "stateMutability": "view",
      "type": "function"
    },
    {
      "inputs": [
        {
          "internalType": "address",
          "name": "ammAddress",
          "type": "address"
        }
      ],
      "name": "getFundingCap",
      "outputs": [
        {
          "components": [
            {
              "internalType": "uint256",
              "name": "dailyCapPercent",
              "type": "uint256"
            },
            {
              "internalType": "uint256",
              "name": "cumulativeCapPercent",
              "type": "uint256"
            },
            {
              "internalType": "uint256",
              "name": "emergencyThreshold",
              "type": "uint256"
            },
            {
              "internalType": "uint256",
              "name": "maxDebtAge",
              "type": "uint256"
            }
          ],
          "internalType": "struct IFundingManager.FundingCap",
          "name": "",
          "type": "tuple"
        }
      ],
      "stateMutability": "view",
      "type": "function"
    },
    {
      "inputs": [
        {
          "internalType": "address",
          "name": "ammAddress",
          "type": "address"
        }
      ],
      "name": "getLPFundingObligation",
      "outputs": [
        {
          "internalType": "int256",
          "name": "",
          "type": "int256"
        }
      ],
      "stateMutability": "view",
      "type": "function"
    },
    {
      "inputs": [
        {
          "internalType": "bytes32",
          "name": "role",
          "type": "bytes32"
        }
      ],
      "name": "getRoleAdmin",
      "outputs": [
        {
          "internalType": "bytes32",
          "name": "",
          "type": "bytes32"
        }
      ],
      "stateMutability": "view",
      "type": "function"
    },
    {
      "inputs": [
        {
          "internalType": "bytes32",
          "name": "role",
          "type": "bytes32"
        },
        {
          "internalType": "address",
          "name": "account",
          "type": "address"
        }
      ],
      "name": "grantRole",
      "outputs": [],
      "stateMutability": "nonpayable",
      "type": "function"
    },
    {
      "inputs": [
        {
          "internalType": "bytes32",
          "name": "role",
          "type": "bytes32"
        },
        {
          "internalType": "address",
          "name": "account",
          "type": "address"
        }
      ],
      "name": "hasRole",
      "outputs": [
        {
          "internalType": "bool",
          "name": "",
          "type": "bool"
        }
      ],
      "stateMutability": "view",
      "type": "function"
    },
    {
      "inputs": [
        {
          "internalType": "address",
          "name": "",
          "type": "address"
        }
      ],
      "name": "lastFundingTime",
      "outputs": [
        {
          "internalType": "uint256",
          "name": "",
          "type": "uint256"
        }
      ],
      "stateMutability": "view",
      "type": "function"
    },
    {
      "inputs": [],
      "name": "oracle",
      "outputs": [
        {
          "internalType": "contract IBaseballOracle",
          "name": "",
          "type": "address"
        }
      ],
      "stateMutability": "view",
      "type": "function"
    },
    {
      "inputs": [
        {
          "internalType": "address",
          "name": "ammAddress",
          "type": "address"
        },
        {
          "internalType": "bool",
          "name": "paused",
          "type": "bool"
        }
      ],
      "name": "pauseFunding",
      "outputs": [],
      "stateMutability": "nonpayable",
      "type": "function"
    },
    {
      "inputs": [],
      "name": "paused",
      "outputs": [
        {
          "internalType": "bool",
          "name": "",
          "type": "bool"
        }
      ],
      "stateMutability": "view",
      "type": "function"
    },
    {
      "inputs": [
        {
          "internalType": "address",
          "name": "ammAddress",
          "type": "address"
        },
        {
          "components": [
            {
              "internalType": "uint256",
              "name": "dailyCapPercent",
              "type": "uint256"
            },
            {
              "internalType": "uint256",
              "name": "cumulativeCapPercent",
              "type": "uint256"
            },
            {
              "internalType": "uint256",
              "name": "emergencyThreshold",
              "type": "uint256"
            },
            {
              "internalType": "uint256",
              "name": "maxDebtAge",
              "type": "uint256"
            }
          ],
          "internalType": "struct IFundingManager.FundingCap",
          "name": "fundingCap",
          "type": "tuple"
        }
      ],
      "name": "registerAMM",
      "outputs": [],
      "stateMutability": "nonpayable",
      "type": "function"
    },
    {
      "inputs": [
        {
          "internalType": "address",
          "name": "ammAddress",
          "type": "address"
        }
      ],
      "name": "registerAMMWithDefaults",
      "outputs": [],
      "stateMutability": "nonpayable",
      "type": "function"
    },
    {
      "inputs": [
        {
          "internalType": "address",
          "name": "",
          "type": "address"
        }
      ],
      "name": "registeredAMMs",
      "outputs": [
        {
          "internalType": "bool",
          "name": "",
          "type": "bool"
        }
      ],
      "stateMutability": "view",
      "type": "function"
    },
    {
      "inputs": [
        {
          "internalType": "bytes32",
          "name": "role",
          "type": "bytes32"
        },
        {
          "internalType": "address",
          "name": "callerConfirmation",
          "type": "address"
        }
      ],
      "name": "renounceRole",
      "outputs": [],
      "stateMutability": "nonpayable",
      "type": "function"
    },
    {
      "inputs": [
        {
          "internalType": "bytes32",
          "name": "role",
          "type": "bytes32"
        },
        {
          "internalType": "address",
          "name": "account",
          "type": "address"
        }
      ],
      "name": "revokeRole",
      "outputs": [],
      "stateMutability": "nonpayable",
      "type": "function"
    },
    {
      "inputs": [
        {
          "internalType": "address",
          "name": "ammAddress",
          "type": "address"
        },
        {
          "internalType": "int256",
          "name": "rate",
          "type": "int256"
        }
      ],
      "name": "setEmergencyFundingRate",
      "outputs": [],
      "stateMutability": "nonpayable",
      "type": "function"
    },
    {
      "inputs": [
        {
          "internalType": "address",
          "name": "ammAddress",
          "type": "address"
        },
        {
          "components": [
            {
              "internalType": "uint256",
              "name": "dailyCapPercent",
              "type": "uint256"
            },
            {
              "internalType": "uint256",
              "name": "cumulativeCapPercent",
              "type": "uint256"
            },
            {
              "internalType": "uint256",
              "name": "emergencyThreshold",
              "type": "uint256"
            },
            {
              "internalType": "uint256",
              "name": "maxDebtAge",
              "type": "uint256"
            }
          ],
          "internalType": "struct IFundingManager.FundingCap",
          "name": "fundingCap",
          "type": "tuple"
        }
      ],
      "name": "setFundingCap",
      "outputs": [],
      "stateMutability": "nonpayable",
      "type": "function"
    },
    {
      "inputs": [
        {
          "internalType": "address",
          "name": "ammAddress",
          "type": "address"
        }
      ],
      "name": "shouldTriggerEmergency",
      "outputs": [
        {
          "internalType": "bool",
          "name": "shouldTrigger",
          "type": "bool"
        },
        {
          "internalType": "uint256",
          "name": "severity",
          "type": "uint256"
        }
      ],
      "stateMutability": "view",
      "type": "function"
    },
    {
      "inputs": [
        {
          "internalType": "bytes4",
          "name": "interfaceId",
          "type": "bytes4"
        }
      ],
      "name": "supportsInterface",
      "outputs": [
        {
          "internalType": "bool",
          "name": "",
          "type": "bool"
        }
      ],
      "stateMutability": "view",
      "type": "function"
    },
    {
      "inputs": [
        {
          "internalType": "address",
          "name": "ammAddress",
          "type": "address"
        },
        {
          "internalType": "string",
          "name": "protocol",
          "type": "string"
        }
      ],
      "name": "triggerEmergencyProtocol",
      "outputs": [],
      "stateMutability": "nonpayable",
      "type": "function"
    },
    {
      "inputs": [
        {
          "internalType": "address",
          "name": "ammAddress",
          "type": "address"
        },
        {
          "components": [
            {
              "internalType": "uint256",
              "name": "dailyCapPercent",
              "type": "uint256"
            },
            {
              "internalType": "uint256",
              "name": "cumulativeCapPercent",
              "type": "uint256"
            },
            {
              "internalType": "uint256",
              "name": "emergencyThreshold",
              "type": "uint256"
            },
            {
              "internalType": "uint256",
              "name": "maxDebtAge",
              "type": "uint256"
            }
          ],
          "internalType": "struct IFundingManager.FundingCap",
          "name": "newCap",
          "type": "tuple"
        }
      ],
      "name": "updateFundingCap",
      "outputs": [],
      "stateMutability": "nonpayable",
      "type": "function"
    },
    {
      "inputs": [
        {
          "internalType": "address",
          "name": "ammAddress",
          "type": "address"
        }
      ],
      "name": "updateFundingRate",
      "outputs": [
        {
          "internalType": "int256",
          "name": "",
          "type": "int256"
        }
      ],
      "stateMutability": "nonpayable",
      "type": "function"
    }
  ],
  "bytecode": "0x60a06040523480156200001157600080fd5b50604051620033d4380380620033d4833981016040819052620000349162000263565b60016002556001600160a01b038216620000955760405162461bcd60e51b815260206004820152601660248201527f496e76616c6964206f7261636c6520616464726573730000000000000000000060448201526064015b60405180910390fd5b6001600160a01b038116620000ed5760405162461bcd60e51b815260206004820152601560248201527f496e76616c69642061646d696e2061646472657373000000000000000000000060448201526064016200008c565b6001600160a01b0382166080526200010760008262000197565b50620001347fa49807205ce4d355092ef5a8a18f56e8913cf4a201fbe287825b095693c217758262000197565b50620001617f11400c7a5250d7dbd2c399c6e5cfee85cdfee21dd668be96cc2b2c9369ca6afd8262000197565b506200018e7fbf233dd2aafeb4d50879c4aa5c81e96d92f6e6945c906a58f9f2d1c1631b4b268262000197565b5050506200029b565b6000828152602081815260408083206001600160a01b038516845290915281205460ff166200023c576000838152602081815260408083206001600160a01b03861684529091529020805460ff19166001179055620001f33390565b6001600160a01b0316826001600160a01b0316847f2f8788117e7eff1d82e926ec794901d17c78024a50270940304540a733656f0d60405160405180910390a450600162000240565b5060005b92915050565b80516001600160a01b03811681146200025e57600080fd5b919050565b600080604083850312156200027757600080fd5b620002828362000246565b9150620002926020840162000246565b90509250929050565b60805161310f620002c5600039600081816106e4015281816118f501526127cb015261310f6000f3fe608060405234801561001057600080fd5b50600436106102bb5760003560e01c80635e6abacf11610182578063aaf5eb68116100e9578063dcdfade5116100a2578063f7886acf1161007c578063f7886acf14610864578063f7c628ee14610877578063f90c3f2714610897578063f9a361631461058557600080fd5b8063dcdfade5146107ed578063e3a892d514610800578063e84fb0101461085557600080fd5b8063aaf5eb6814610779578063ac811e4b14610788578063ba8ae5d61461079b578063c1a287e2146107c2578063d547741f146107cb578063d5eb9cee146107de57600080fd5b80637dc0d1d01161013b5780637dc0d1d0146106df57806391d148541461071e578063a217fddf14610731578063a444d0d514610739578063a4c1b50b146104f2578063a8c5fab11461075957600080fd5b80635e6abacf146105d25780635e94a824146106275780635ef399db14610651578063609d6a2b1461067157806364d6fe3f1461068457806375b238fc146106ca57600080fd5b80632f2ff15d11610226578063447e2e36116101df578063447e2e361461057b578063518f301a146105855780635408cae814610598578063594df809146105a15780635a723de0146105b45780635c975abb146105c757600080fd5b80632f2ff15d146104df578063304ca8ef146104f2578063312b4ef5146104fc57806336568abe1461052757806336e3c7eb1461053a57806342562ed21461054d57600080fd5b806320df43591161027857806320df4359146104225780632193431d1461044957806321ef21c31461045c578063248a9ca31461047157806326b29bfc146104945780632ba366e6146104b757600080fd5b806301ffc9a7146102c057806303f381ba146102e85780630857fa6b146103275780630b464f881461034a578063125a132414610366578063152d5008146103cb575b600080fd5b6102d36102ce366004612958565b6108a1565b60405190151581526020015b60405180910390f35b6102d36102f6366004612a0d565b600b602090815260009283526040909220815180830184018051928152908401929093019190912091525460ff1681565b6102d3610335366004612aa0565b60036020526000908152604090205460ff1681565b61035866b1a2bc2ec5000081565b6040519081526020016102df565b6103a3610374366004612aa0565b600660205260009081526040902080546001820154600283015460038401546004909401549293919290919085565b604080519586526020860194909452928401919091526060830152608082015260a0016102df565b6103de6103d9366004612aa0565b6108d8565b6040516102df9190600060a0820190508251825260208301516020830152604083015160408301526060830151151560608301526080830151608083015292915050565b6103587fbf233dd2aafeb4d50879c4aa5c81e96d92f6e6945c906a58f9f2d1c1631b4b2681565b610358610457366004612abd565b611043565b61046f61046a366004612aed565b6111b8565b005b61035861047f366004612b19565b60009081526020819052604090206001015490565b6102d36104a2366004612aa0565b60056020526000908152604090205460ff1681565b6104ca6104c5366004612aa0565b61128a565b604080519283526020830191909152016102df565b61046f6104ed366004612abd565b6113b7565b61035862278d0081565b61035861050a366004612aed565b600a60209081526000928352604080842090915290825290205481565b61046f610535366004612abd565b6113e2565b61046f610548366004612b40565b61141a565b61056061055b366004612aa0565b611496565b604080519384526020840192909252908201526060016102df565b61035862093a8081565b61046f610593366004612b6e565b6115dd565b610358618ca081565b61046f6105af366004612aa0565b6116d6565b6103586105c2366004612aa0565b6117d7565b60015460ff166102d3565b6106076105e0366004612aa0565b60046020526000908152604090208054600182015460028301546003909301549192909184565b6040805194855260208501939093529183015260608201526080016102df565b61063a610635366004612aed565b611a98565b6040805192151583526020830191909152016102df565b61035861065f366004612aa0565b60086020526000908152604090205481565b61035861067f366004612aa0565b611c54565b610697610692366004612aa0565b611da5565b6040516102df91908151815260208083015190820152604080830151908201526060918201519181019190915260800190565b6103586000805160206130ba83398151915281565b6107067f000000000000000000000000000000000000000000000000000000000000000081565b6040516001600160a01b0390911681526020016102df565b6102d361072c366004612abd565b611e56565b610358600081565b610358610747366004612aa0565b600c6020526000908152604090205481565b610358610767366004612aa0565b60096020526000908152604090205481565b610358670de0b6b3a764000081565b61063a610796366004612aa0565b611e7f565b6103587f11400c7a5250d7dbd2c399c6e5cfee85cdfee21dd668be96cc2b2c9369ca6afd81565b610358610e1081565b61046f6107d9366004612abd565b612011565b6103586702c68af0bb14000081565b61046f6107fb366004612b6e565b612036565b61081361080e366004612aa0565b61217a565b6040516102df9190600060a082019050825182526020830151602083015260408301516040830152606083015160608301526080830151608083015292915050565b610358670214e8348c4f000081565b61046f610872366004612baf565b61223c565b610358610885366004612aa0565b60076020526000908152604090205481565b6103586201518081565b60006001600160e01b03198216637965db0b60e01b14806108d257506301ffc9a760e01b6001600160e01b03198316145b92915050565b61090c6040518060a00160405280600081526020016000815260200160008152602001600015158152602001600081525090565b61091461237c565b61091c6123a4565b6109467f11400c7a5250d7dbd2c399c6e5cfee85cdfee21dd668be96cc2b2c9369ca6afd33611e56565b6109935760405162461bcd60e51b81526020600482015260196024820152782ab730baba3437b934bd32b2233ab73234b733a1b0b63632b960391b60448201526064015b60405180910390fd5b6001600160a01b03821660009081526003602052604090205460ff166109cb5760405162461bcd60e51b815260040161098a90612c34565b6001600160a01b03821660009081526005602052604090205460ff1615610a245760405162461bcd60e51b815260206004820152600d60248201526c119d5b991a5b99d4185d5cd959609a1b604482015260640161098a565b610a2d826117d7565b506001600160a01b0382166000818152600660209081526040808320815160a08101835281548152600182015493810193909352600281015483830152600381015460608401526004908101546080808501919091524290870152905163609d6a2b60e01b8152908101939093528492909190309063609d6a2b90602401602060405180830381865afa158015610ac8573d6000803e3d6000fd5b505050506040513d601f19601f82011682018060405250810190610aec9190612c5e565b90506000811315610c46576040516317a52a0960e21b81526001600160a01b03861660048201526024810182905260009081903090635e94a824906044016040805180830381865afa158015610b46573d6000803e3d6000fd5b505050506040513d601f19601f82011682018060405250810190610b6a9190612c77565b915091508115610c43576001606087015260405163609d6a2b60e01b81526001600160a01b038816600482018190529193508391907f53102b5446054a7c3afe0aaeebe4267955f67bd7a5c9606212ecf710d4a73f2590309063609d6a2b90602401602060405180830381865afa158015610be9573d6000803e3d6000fd5b505050506040513d601f19601f82011682018060405250810190610c0d9190612c5e565b604080516060808252600590820152646461696c7960d81b60808201526020810192909252810184905260a00160405180910390a25b50505b6000836001600160a01b031663a7aa0ec06040518163ffffffff1660e01b8152600401600060405180830381865afa158015610c86573d6000803e3d6000fd5b505050506040513d6000823e601f3d908101601f19168201604052610cae9190810190612ca5565b8051604087015290506000805b8251811015610df0576000838281518110610cd857610cd8612d3f565b6020908102919091010151604051632193431d60e01b8152600481018290526001600160a01b038b1660248201529091506000903090632193431d90604401602060405180830381865afa158015610d34573d6000803e3d6000fd5b505050506040513d601f19601f82011682018060405250810190610d589190612c5e565b90508015610de657604051634bfbe92f60e11b815260048101839052602481018290526001600160a01b038916906397f7d25e90604401600060405180830381600087803b158015610da957600080fd5b505af1158015610dbd573d6000803e3d6000fd5b5050505060008113610dd757610dd281612d6b565b610dd9565b805b610de39085612d87565b93505b5050600101610cbb565b50808652602086018390528215610e9a5760405163e2ea1ced60e01b8152600481018490526000906001600160a01b0387169063e2ea1ced906024016020604051808303816000875af1158015610e4b573d6000803e3d6000fd5b505050506040513d601f19601f82011682018060405250810190610e6f9190612c5e565b602088018190529050610e988860008313610e9257610e8d83612d6b565b6123ca565b826123ca565b505b6001600160a01b0387166000818152600760209081526040918290204290558851908901518983015160608b015193517fef6ddcb9440f507b116f992cd799a3083e2984e960302f0502effa4b73faa3a394610f1094939291938452602084019290925260408301521515606082015260800190565b60405180910390a260405163ac811e4b60e01b81526001600160a01b03881660048201526000908190309063ac811e4b906024016040805180830381865afa158015610f60573d6000803e3d6000fd5b505050506040513d601f19601f82011682018060405250810190610f849190612c77565b91509150818015610fac57506001600160a01b0389166000908152600c602052604090205481115b1561102d576001600160a01b0389166000818152600c6020908152604091829020849055815182815260168184015275199d5b991a5b99d7d8d85c17d85c1c1c9bd858da195960521b606082015290810184905290517fa4d1219d8ce811c20c8a2d773f74cf16f97c9924cc41c71b53b73c3612ae5c919181900360800190a25b5050505050505061103e6001600255565b919050565b6001600160a01b03811660009081526003602052604081205460ff1661107b5760405162461bcd60e51b815260040161098a90612c34565b60405163eb02c30160e01b81526004810184905282906000906001600160a01b0383169063eb02c3019060240160e060405180830381865afa1580156110c5573d6000803e3d6000fd5b505050506040513d601f19601f820116820180604052508101906110e99190612d9a565b90508060c001516110ff576000925050506108d2565b6001600160a01b0384166000818152600660209081526040808320815160a0810183528154815260018201548185015260028201548184015260038201546060820152600490910154608082015293835260079091528120546111629042612e2d565b9050600061117b62015180670de0b6b3a7640000612e40565b83516020860151849161118d91612e40565b6111979190612e40565b6111a19190612e86565b90506111ac81612d6b565b98975050505050505050565b7fbf233dd2aafeb4d50879c4aa5c81e96d92f6e6945c906a58f9f2d1c1631b4b266111e28161249e565b6001600160a01b03831660009081526003602052604090205460ff1661121a5760405162461bcd60e51b815260040161098a90612c34565b6001600160a01b0383166000818152600660209081526040808320868155426001909101558051868152918201839052810191909152606081018490527f08968e1a56873f1b27a6f2fd6b931c7bfe66a2e82a89037e2a63efc50b891d17906080015b60405180910390a2505050565b6001600160a01b038116600090815260036020526040812054819060ff166112c45760405162461bcd60e51b815260040161098a90612c34565b60006112cf846124ab565b6001600160a01b038516600081815260046020818152604080842081516080810183528154815260018201548185015260028201548184015260039091015460608201528151631ec92d3560e21b81529151969750958a9593637b24b4d49383820193909291908290030181865afa15801561134f573d6000803e3d6000fd5b505050506040513d601f19601f820116820180604052508101906113739190612c5e565b905060008082116113855760006113a8565b670de0b6b3a764000084602001518361139e9190612eb4565b6113a89190612ecb565b94989497509395505050505050565b6000828152602081905260409020600101546113d28161249e565b6113dc8383612529565b50505050565b6001600160a01b038116331461140b5760405163334bd91960e11b815260040160405180910390fd5b61141582826125bb565b505050565b6000805160206130ba8339815191526114328161249e565b6001600160a01b03831660009081526003602052604090205460ff1661146a5760405162461bcd60e51b815260040161098a90612c34565b506001600160a01b03919091166000908152600560205260409020805460ff1916911515919091179055565b6001600160a01b0381166000908152600360205260408120548190819060ff166114d25760405162461bcd60e51b815260040161098a90612c34565b60006114dd85612626565b6001600160a01b038616600081815260046020818152604080842081516080810183528154815260018201548185015260028201548184015260039091015460608201528151631ec92d3560e21b81529151969750958b9593637b24b4d49383820193909291908290030181865afa15801561155d573d6000803e3d6000fd5b505050506040513d601f19601f820116820180604052508101906115819190612c5e565b905060008082116115935760006115b3565b8351670de0b6b3a7640000906115a99084612eb4565b6115b39190612ecb565b6001600160a01b039990991660009081526009602052604090205494999497509395505050505050565b6000805160206130ba8339815191526115f58161249e565b6001600160a01b03831660009081526003602052604090205460ff1661162d5760405162461bcd60e51b815260040161098a90612c34565b61164461163f36849003840184612edf565b612678565b61168a5760405162461bcd60e51b815260206004820152601760248201527624b73b30b634b221b0b821b7b73334b3bab930ba34b7b760491b604482015260640161098a565b6001600160a01b038316600090815260046020526040902082906116cf8282813581556020820135600182015560408201356002820155606082013560038201555050565b5050505050565b6000805160206130ba8339815191526116ee8161249e565b6001600160a01b03821661173a5760405162461bcd60e51b8152602060048201526013602482015272496e76616c696420414d4d206164647265737360681b604482015260640161098a565b506040805160808101825266b1a2bc2ec5000081526702c68af0bb1400006020808301918252670214e8348c4f000083850190815262093a80606085019081526001600160a01b03909616600090815260048352858120945185559251600180860191909155905160028501559451600393840155918252828120805460ff19169094179093556009815281832042908190556007909152912055565b6001600160a01b03811660009081526003602052604081205460ff1661180f5760405162461bcd60e51b815260040161098a90612c34565b600061181a836126f1565b905060008390506000816001600160a01b031663eb91d37e6040518163ffffffff1660e01b8152600401602060405180830381865afa158015611861573d6000803e3d6000fd5b505050506040513d601f19601f820116820180604052508101906118859190612c5e565b90506000826001600160a01b031663a45603766040518163ffffffff1660e01b8152600401600060405180830381865afa1580156118c7573d6000803e3d6000fd5b505050506040513d6000823e601f3d908101601f191682016040526118ef9190810190612f69565b905060007f00000000000000000000000000000000000000000000000000000000000000006001600160a01b0316630179b73e836040518263ffffffff1660e01b815260040161193f9190612fe0565b602060405180830381865afa15801561195c573d6000803e3d6000fd5b505050506040513d601f19601f820116820180604052508101906119809190612c5e565b9050600081670de0b6b3a76400006119988287613013565b6119a29190612e40565b6119ac9190612e86565b90506040518060a0016040528087815260200142815260200183815260200185815260200182815250600660008a6001600160a01b03166001600160a01b031681526020019081526020016000206000820151816000015560208201518160010155604082015181600201556060820151816003015560808201518160040155905050876001600160a01b03167f08968e1a56873f1b27a6f2fd6b931c7bfe66a2e82a89037e2a63efc50b891d1787848785604051611a84949392919093845260208401929092526040830152606082015260800190565b60405180910390a250939695505050505050565b6001600160a01b038216600090815260036020526040812054819060ff16611ad25760405162461bcd60e51b815260040161098a90612c34565b6001600160a01b038416600081815260046020818152604080842081516080810183528154815260018201548185015260028201548184015260039091015460608201528151631ec92d3560e21b8152915190958a95949093637b24b4d493808301939192908290030181865afa158015611b51573d6000803e3d6000fd5b505050506040513d601f19601f82011682018060405250810190611b759190612c5e565b905080600003611b8f576001600094509450505050611c4d565b8251600090670de0b6b3a764000090611ba89084612eb4565b611bb29190612ecb565b90506000611bbf89612626565b90506000818311611bd1576000611bdb565b611bdb8284612e2d565b90506000670de0b6b3a7640000876020015186611bf89190612eb4565b611c029190612ecb565b90506000611c0f8c6124ab565b90506000818311611c21576000611c2b565b611c2b8284612e2d565b9050808410611c3a5780611c3c565b835b9950898c119a505050505050505050505b9250929050565b6001600160a01b03811660009081526003602052604081205460ff16611c8c5760405162461bcd60e51b815260040161098a90612c34565b6001600160a01b0382166000818152600660209081526040808320815160a0810183528154815260018201548185015260028201548184015260038201546060820152600491820154608082015282516389852e9d60e01b81529251889691959491936389852e9d938181019392918290030181865afa158015611d14573d6000803e3d6000fd5b505050506040513d601f19601f82011682018060405250810190611d389190612c5e565b6001600160a01b03861660009081526007602052604081205491925090611d5f9042612e2d565b90506000611d7862015180670de0b6b3a7640000612e40565b84518390611d869086612e40565b611d909190612e40565b611d9a9190612e86565b979650505050505050565b611dd06040518060800160405280600081526020016000815260200160008152602001600081525090565b6001600160a01b03821660009081526003602052604090205460ff16611e085760405162461bcd60e51b815260040161098a90612c34565b506001600160a01b0316600090815260046020908152604091829020825160808101845281548152600182015492810192909252600281015492820192909252600390910154606082015290565b6000918252602082815260408084206001600160a01b0393909316845291905290205460ff1690565b6001600160a01b038116600090815260036020526040812054819060ff16611eb95760405162461bcd60e51b815260040161098a90612c34565b6001600160a01b038316600090815260046020908152604080832081516080810183528154815260018201549381019390935260028101549183019190915260030154606082015290611f0b856124ab565b905060008590506000816001600160a01b0316637b24b4d46040518163ffffffff1660e01b8152600401602060405180830381865afa158015611f52573d6000803e3d6000fd5b505050506040513d601f19601f82011682018060405250810190611f769190612c5e565b905080600003611f8f5750600096879650945050505050565b600081611fa4670de0b6b3a764000086612eb4565b611fae9190612ecb565b905084604001518110612007576001965084602001518110611fd35760039550612007565b600285602001518660400151611fe99190612d87565b611ff39190612ecb565b81106120025760029550612007565b600195505b5050505050915091565b60008281526020819052604090206001015461202c8161249e565b6113dc83836125bb565b6000805160206130ba83398151915261204e8161249e565b6001600160a01b03831661209a5760405162461bcd60e51b8152602060048201526013602482015272496e76616c696420414d4d206164647265737360681b604482015260640161098a565b6120ac61163f36849003840184612edf565b6120f25760405162461bcd60e51b815260206004820152601760248201527624b73b30b634b221b0b821b7b73334b3bab930ba34b7b760491b604482015260640161098a565b6001600160a01b0383166000908152600360209081526040808320805460ff1916600117905560049091529020829061214c8282813581556020820135600182015560408201356002820155606082013560038201555050565b505050506001600160a01b031660009081526009602090815260408083204290819055600790925290912055565b6121ac6040518060a0016040528060008152602001600081526020016000815260200160008152602001600081525090565b6001600160a01b03821660009081526003602052604090205460ff166121e45760405162461bcd60e51b815260040161098a90612c34565b506001600160a01b0316600090815260066020908152604091829020825160a0810184528154815260018201549281019290925260028101549282019290925260038201546060820152600490910154608082015290565b6122667fbf233dd2aafeb4d50879c4aa5c81e96d92f6e6945c906a58f9f2d1c1631b4b2633611e56565b6122ae5760405162461bcd60e51b81526020600482015260196024820152782ab730baba3437b934bd32b2233ab73234b733a1b0b63632b960391b604482015260640161098a565b6001600160a01b03831660009081526003602052604090205460ff166122e65760405162461bcd60e51b815260040161098a90612c34565b6001600160a01b0383166000908152600b602052604090819020905160019190612313908590859061303a565b9081526040805160209281900383018120805460ff1916941515949094179093556001600160a01b0386166000818152600c90935291205490917fa4d1219d8ce811c20c8a2d773f74cf16f97c9924cc41c71b53b73c3612ae5c919161127d918691869161304a565b600280540361239e57604051633ee5aeb560e01b815260040160405180910390fd5b60028055565b60015460ff16156123c85760405163d93c066560e01b815260040160405180910390fd5b565b6001600160a01b0382166000908152600960205260409020546123f09062015180612d87565b421061241f576001600160a01b0382166000908152600860209081526040808320839055600990915290204290555b6001600160a01b03821660009081526008602052604081208054839290612447908490612d87565b909155506000905061245c6201518042612ecb565b6001600160a01b0384166000908152600a60209081526040808320848452909152812080549293508492909190612494908490612d87565b9091555050505050565b6124a8813361291b565b50565b600080806124bc6201518042612ecb565b905060005b6124d16201518062278d00612ecb565b8110156125205760006124e48284612e2d565b6001600160a01b0387166000908152600a602090815260408083208484529091529020549091506125159085612d87565b9350506001016124c1565b50909392505050565b60006125358383611e56565b6125b3576000838152602081815260408083206001600160a01b03861684529091529020805460ff1916600117905561256b3390565b6001600160a01b0316826001600160a01b0316847f2f8788117e7eff1d82e926ec794901d17c78024a50270940304540a733656f0d60405160405180910390a45060016108d2565b5060006108d2565b60006125c78383611e56565b156125b3576000838152602081815260408083206001600160a01b0386168085529252808320805460ff1916905551339286917ff6391f5c32d9c69d2a47ea670b442974b53935d1edc7fd64eb21e047a839171b9190a45060016108d2565b6001600160a01b03811660009081526009602052604081205461264c8162015180612d87565b421061265b5750600092915050565b50506001600160a01b031660009081526008602052604090205490565b80516000901580159061269457508151670de0b6b3a764000010155b80156126a4575060008260200151115b80156126bc5750670de0b6b3a7640000826020015111155b80156126cc575060008260400151115b80156126e057508160200151826040015111155b80156108d257505060600151151590565b6000808290506000816001600160a01b031663eb91d37e6040518163ffffffff1660e01b8152600401602060405180830381865afa158015612737573d6000803e3d6000fd5b505050506040513d601f19601f8201168201806040525081019061275b9190612c5e565b90506000826001600160a01b031663a45603766040518163ffffffff1660e01b8152600401600060405180830381865afa15801561279d573d6000803e3d6000fd5b505050506040513d6000823e601f3d908101601f191682016040526127c59190810190612f69565b905060007f00000000000000000000000000000000000000000000000000000000000000006001600160a01b0316630179b73e836040518263ffffffff1660e01b81526004016128159190612fe0565b602060405180830381865afa158015612832573d6000803e3d6000fd5b505050506040513d601f19601f820116820180604052508101906128569190612c5e565b9050600081670de0b6b3a764000061286e8287613013565b6128789190612e40565b6128829190612e86565b90506000856001600160a01b031663a5ea11da6040518163ffffffff1660e01b8152600401608060405180830381865afa1580156128c4573d6000803e3d6000fd5b505050506040513d601f19601f820116820180604052508101906128e89190613083565b50509150506000670de0b6b3a764000082846129049190612e40565b61290e9190612e86565b9998505050505050505050565b6129258282611e56565b6129545760405163e2517d3f60e01b81526001600160a01b03821660048201526024810183905260440161098a565b5050565b60006020828403121561296a57600080fd5b81356001600160e01b03198116811461298257600080fd5b9392505050565b6001600160a01b03811681146124a857600080fd5b634e487b7160e01b600052604160045260246000fd5b604051601f8201601f1916810167ffffffffffffffff811182821017156129dd576129dd61299e565b604052919050565b600067ffffffffffffffff8211156129ff576129ff61299e565b50601f01601f191660200190565b60008060408385031215612a2057600080fd5b8235612a2b81612989565b9150602083013567ffffffffffffffff811115612a4757600080fd5b8301601f81018513612a5857600080fd5b8035612a6b612a66826129e5565b6129b4565b818152866020838501011115612a8057600080fd5b816020840160208301376000602083830101528093505050509250929050565b600060208284031215612ab257600080fd5b813561298281612989565b60008060408385031215612ad057600080fd5b823591506020830135612ae281612989565b809150509250929050565b60008060408385031215612b0057600080fd5b8235612b0b81612989565b946020939093013593505050565b600060208284031215612b2b57600080fd5b5035919050565b80151581146124a857600080fd5b60008060408385031215612b5357600080fd5b8235612b5e81612989565b91506020830135612ae281612b32565b60008082840360a0811215612b8257600080fd5b8335612b8d81612989565b92506080601f1982011215612ba157600080fd5b506020830190509250929050565b600080600060408486031215612bc457600080fd5b8335612bcf81612989565b9250602084013567ffffffffffffffff80821115612bec57600080fd5b818601915086601f830112612c0057600080fd5b813581811115612c0f57600080fd5b876020828501011115612c2157600080fd5b6020830194508093505050509250925092565b60208082526010908201526f105353539bdd149959da5cdd195c995960821b604082015260600190565b600060208284031215612c7057600080fd5b5051919050565b60008060408385031215612c8a57600080fd5b8251612c9581612b32565b6020939093015192949293505050565b60006020808385031215612cb857600080fd5b825167ffffffffffffffff80821115612cd057600080fd5b818501915085601f830112612ce457600080fd5b815181811115612cf657612cf661299e565b8060051b9150612d078483016129b4565b8181529183018401918481019088841115612d2157600080fd5b938501935b838510156111ac57845182529385019390850190612d26565b634e487b7160e01b600052603260045260246000fd5b634e487b7160e01b600052601160045260246000fd5b6000600160ff1b8201612d8057612d80612d55565b5060000390565b808201808211156108d2576108d2612d55565b600060e08284031215612dac57600080fd5b60405160e0810181811067ffffffffffffffff82111715612dcf57612dcf61299e565b6040528251612ddd81612989565b808252506020830151602082015260408301516040820152606083015160608201526080830151608082015260a083015160a082015260c0830151612e2181612b32565b60c08201529392505050565b818103818111156108d2576108d2612d55565b80820260008212600160ff1b84141615612e5c57612e5c612d55565b81810583148215176108d2576108d2612d55565b634e487b7160e01b600052601260045260246000fd5b600082612e9557612e95612e70565b600160ff1b821460001984141615612eaf57612eaf612d55565b500590565b80820281158282048414176108d2576108d2612d55565b600082612eda57612eda612e70565b500490565b600060808284031215612ef157600080fd5b6040516080810181811067ffffffffffffffff82111715612f1457612f1461299e565b8060405250823581526020830135602082015260408301356040820152606083013560608201528091505092915050565b60005b83811015612f60578181015183820152602001612f48565b50506000910152565b600060208284031215612f7b57600080fd5b815167ffffffffffffffff811115612f9257600080fd5b8201601f81018413612fa357600080fd5b8051612fb1612a66826129e5565b818152856020838501011115612fc657600080fd5b612fd7826020830160208601612f45565b95945050505050565b6020815260008251806020840152612fff816040850160208701612f45565b601f01601f19169190910160400192915050565b818103600083128015838313168383128216171561303357613033612d55565b5092915050565b8183823760009101908152919050565b604081528260408201528284606083013760006060848301015260006060601f19601f8601168301019050826020830152949350505050565b6000806000806080858703121561309957600080fd5b50508251602084015160408501516060909501519196909550909250905056fea49807205ce4d355092ef5a8a18f56e8913cf4a201fbe287825b095693c21775a264697066735822122050b62e5c57973ca251a5230f900fdfa1fc83e6dded7643e716da939e6b46dc1e64736f6c63430008160033",
  "linkReferences": {},
  "deployedLinkReferences": {}
}